:0200000038C006
:10000200FECFFDCFFCCFFBCFFACFF9CFF8CFF7CFA2
:10001200F6CFF5CFF4CFF3CFF2CFF1CFF0CFEFCFD2
:10002200EECFEDCF1027E80364000A0001000010B4
:100032000001100001004E756D65726F206465202D
:10004200706573736F6173206E6F20696E74657271
:10005200696F723A203D2025642E0D0A00416D62BF
:1000620069656E74652076617A696F200D0A0000F9
:10007200F894EE27ECBBF1E0FBBFEBBFE5BFF8E184
:10008200F1BDE1BD8DE0A2E0BB27ED938A95E9F7D2
:1000920080E094E0A0E6ED930197E9F7EFE5EDBF8C
:1000A200E4E0EEBFC0E6D1E000C044245524E0E025
:1000B200E8BBE2E0E7BBE0E0E5BBE2E0E4BBE0E0B6
:1000C200E2BBE1BBE3BFE2BFEFBDEEBDEDBDECBD08
:1000D200E7BDE6BDEBBDEABDE9BDE8BDE2BDE5BDFC
:1000E200E4BDE3BDE5BFE9BFEBB9E8E0EAB9E6E8A4
:1000F200E0BDE0E0E0BDEFE2E9B9E0E8E8B9E0E068
:10010200E0BFE6B9EDB9E6BF819B03C0F2013196CB
:100112009ED1A4EFB1E0FAD1829B0EC0042C052837
:1001220041F4EFE5F0E0FA93EA9380E059D12296A8
:1001320003C0F20131978BD1E5E0F0E0E415F5055B
:1001420041F4A99B02C0A99801C0A99AA4EFB1E009
:10015200DDD1E6E0F0E0E415F50541F4A99B02C02B
:10016200A99801C0A99AA6E9B0E0D0D1E7E0F0E0F1
:100172004E165F0624F0A99AAAE0B0E0C7D1C4CF18
:10018200FFCFAA935D9BFECFE881ECB9219608953B
:100192006AD1AA81F6DFA881B98168D13196FE932E
:1001A200EE93239608955FD1269788D110E0AC850F
:1001B200BD85E0E0F0E0ED93FC93EA89FB8931969E
:1001C200EA8BFB8B3197E4912E2FE03009F402C1C8
:1001D200E12FE03031F4253211F411E001C049D1B0
:1001E200F8C0E130A1F4253211F443D1F1C012E09C
:1001F20040E000E02D3211F401E0EBC02B3211F4AB
:100202004BE2E7C0203211F440E2E3C002C0E23028
:1002120039F450E013E0203311F40068DAC003C06F
:10022200E33009F0D6C0203310F02A3308F007C0BB
:10023200AAE05A9F502DE22FE0535E0FCAC0E22F70
:10024200E33639F41DD11FD11BD1A481AA931FD14A
:10025200BFC0E33729F421D122D1E2D01E2F07C03B
:10026200E03749F41AD11BD1E6D01E2F0860026094
:100272000F7730E034C0E43611F0E93611F404604F
:1002820002C0E53729F4E6E2F0E012D115E00BC036
:10029200E83511F4086003C0E83709F099C0E0E3DB
:1002A200F0E006D114E002FF14C0F7D0A889B989A2
:1002B2001496DCD000D1AB85AA232AF4EA85FB850B
:1002C2000FD1F9D04DE2403011F01F5F01C00B7F1A
:1002D20006C0E3D0A889B98914960BD1ECD000FDF1
:1002E20010C0151770F407FF08C002FF04C00B7F8F
:1002F200242F115001C020E301C020E2BAD0515096
:10030200F0CF312F01FF15C0303091F003FF05C04F
:10031200EE81FF812591CCD005C0AE81BF812D91A8
:10032200AE83BF83A6D0503009F051503150ECCF8C
:1003320046C020E3EE81FF81E0D0E887F987EE81B5
:10034200FF813296B5D0E885F985AA85BB85AE17BF
:10035200BF0748F02F5FA885B985EA85FB85EA1BB0
:10036200FB0BA9D0F0CF2A3328F003FF02C0295F8C
:1003720001C0295D04FD19C0213320F4A885B98587
:10038200119709F409C0531710F000FF01C011C002
:1003920020E207FF0AC020E3006102FF06C00B7FD4
:1003A2004A9375D0503009F0515063D0503009F063
:1003B20051503150A885B985129708F0BACF00FF85
:1003C20007C0503029F05150E0E2EA9360D0F9CFF3
:1003D20010E0F3CEAC85BD8549D077D06496089500
:1003E200FF92F82E26976ED0DE01149675D08D01FD
:1003F200E0E0EC83ED83EE83EF83DE0118966CD0B0
:1004020035D0FA93EA931A930A93E9ECF0E0FA935F
:10041200EA93DE011896C7DE5CD02896FF90089515
:1004220022D0A991B991EE27FF276D91662311F091
:100432003196FBCF089517D0AA27BB27E991F991EE
:100442000590002011F01196FBCFFD0108952F01B8
:10045200E8E3F0E0FA93EA93F20146D052D084E066
:10046200BFDF26960895BA93AA930895ED91FD9160
:1004720008952A93AD85BE85EF85F889099508957B
:10048200E889F98908953497E88BF98B0895AD8549
:10049200BE85EF85F88909950895F2DFF4CFA88922
:1004A200B9891496E3DFEE83FF83AE81BF8108959D
:1004B200EE83FF830895EA87FB8708955A934A9350
:1004C2003A932A931A930A9308955D814C813B8152
:1004D2002A811981088108950024AF0DB01D089565
:1004E200F195E195F04008956F2F660F660B762F18
:1004F2000895ED91FC91119708950590F491E02DE6
:1005020008957A936A93FA93EA930895109639F0CC
:10051200A89586E69EE00197F1F71197C9F708952D
:00000001FF
