:0A0000000C946D000C9400000C94A9
:10000A0000000C9400000C9400000C9400000C9466
:10001A0000000C9400000C9400000C9400000C9456
:10002A0000000C9400000C9400000C9400000C9446
:10003A0000000C9400000C9400000C9400000C9436
:10004A0000000C9400000C9400001027E8036400E0
:10005A000A00010000100001100001000000000069
:10006A0000000102040810204080003C464A526207
:10007A003C00003C464A52623C00003C464A5262FE
:10008A003C004E756D65726F2064652070657373F0
:10009A006F6173206E6F20696E746572696F723A50
:1000AA00203D2025642E0D0A00416D6269656E743B
:1000BA00652076617A696F200D0A00000600060045
:1000CA006600080060016C001700680174000000F7
:1000DA00F894EE27ECBBF1E0FBBFEBBFE5BF8DE088
:1000EA00A2E0BB27ED938A95E9F780E094E0A0E6C9
:1000FA00ED930197E9F7E6ECF0E085919591009789
:10010A0061F0A591B59105901590BF01F001059098
:10011A000D920197E1F7FB01F0CFEFE5EDBFE4E0C7
:10012A00EEBFC0E6D1E00C949A0044245524EFEFC8
:10013A00EABBE0E0E7BBE8BBEFEFE4BBE0E0E1BB32
:10014A00E2BBE3BFE2BFECBFEFBDEEBDEDBDECBD70
:10015A00E7BDE6BDEBBDEABDE9BDE8BDE2BDE5BD73
:10016A00E4BDE3BDE9BFE5BFE4BFEBB9E8E1EAB945
:10017A00E6E8E0BDE0E0E0BDEFE5E9B9E0E8E8B9CE
:10018A00E0E0E0BFE6B9EDB9E6BFB09B03C0F2011B
:10019A003196C4D1A4EFB1E019D2B19B0EC0042CA0
:1001AA00052841F4E3EBF0E0FA93EA9380E07AD190
:1001BA00229603C0F2013197B1D1E3E0F0E04E1686
:1001CA005F069CF1AA24BB24E8E7F0E0AE16BF065E
:1001DA0004F5A0E6B1E0A60DB71DEC91EBBBF40166
:1001EA00DCD1E859FE4FE60DF71DE081E095E5BB4D
:1001FA00A2E0B0E0EBD1F30131963F01E8E0F0E094
:10020A00E615F70514F466247724F50131965F01A3
:10021A00DBCFF40131964F01E2E0F0E0E815F90591
:10022A0024F48824992466247724AFCFFFCFAA9395
:10023A005D9BFECFE881ECB9219608959AD18D0194
:10024A003C81A32FF4DFD801ED91FD913196FE9305
:10025A00EE9396D125960895BA93AA93269787D1B5
:10026A0010E0AC85BD85E0E0F0E0ED93FC93EA890F
:10027A00FB893196EA8BFB8B3197E4912E2FE03084
:10028A0009F409C1E12FE03031F4253211F411E00B
:10029A0001C050D1FFC0E130A1F4253211F44AD196
:1002AA00F8C012E040E000E02D3211F401E0F2C0A3
:1002BA002B3211F44BE2EEC0203211F440E2EAC0D4
:1002CA0002C0E23039F450E013E0203311F4006840
:1002DA00E1C003C0E33009F0DDC0203310F02A3357
:1002EA0008F007C0AAE05A9F502DE22FE0535E0F94
:1002FA00D1C0E22FE33639F424D1E889F989A481FF
:10030A00AA9325D1C6C0E33729F41BD126D1EDD053
:10031A001E2F07C0E03749F414D11FD1F2D01E2F87
:10032A00086002600F7730E038C0E43611F0E93631
:10033A0011F4046002C0E53731F4E4E5F0E0EE833D
:10034A00FF8315E00CC0E83511F4086003C0E837F4
:10035A0009F09FC0EEE5F0E0EE83FF8314E002FFB0
:10036A0015C0EFD0A889B9891496ED91FD91EA8755
:10037A00FB87AB85AA2322F40CD1EA87FB874DE2DF
:10038A00403011F01F5F01C00B7F07C0DAD0A88987
:10039A00B98914960ED1EA87FB8700FD10C015179C
:1003AA0070F407FF08C002FF04C00B7F242F11500E
:1003BA0001C020E301C020E2BDD05150F0CF312F5F
:1003CA0001FF16C0303099F003FF06C0EE81FF81AD
:1003DA002591EE83FF8305C0AE81BF812D91AE8347
:1003EA00BF83A8D0503009F051503150EBCF48C0EC
:1003FA0020E3EE81FF81E1D0E887F987EE81FF8172
:10040A003296EE83FF83E885F985AA85BB85AE1708
:10041A00BF0750F02F5FA885B985EA85FB85EA1BDF
:10042A00FB0BEA87FB87EFCF2A3328F003FF02C0D2
:10043A00295F01C0295D04FD19C0213320F4A88574
:10044A00B985119709F409C0531710F000FF01C0CC
:10045A0011C020E207FF0AC020E3006102FF06C0C4
:10046A000B7F4A9374D0503009F0515063D050300A
:10047A0009F051503150A885B985129708F0B8CFC4
:10048A0000FF07C0503029F05150E0E2EA935FD0F4
:10049A00F9CF10E0ECCEAC85BD85ED91FD916ED023
:1004AA0064960895FF92F82E26971A930A93DE010E
:1004BA0014966BD08D01E0E0EC83ED83EE83EF833D
:1004CA00DE01189662D0ED91FD91FA93EA931A93A0
:1004DA000A93E3E2F1E0FA93EA93DE011896BCDEAE
:1004EA00198108812896FF900895BA93AA93A99131
:1004FA00B991EE27FF276D91662311F03196FBCF54
:10050A000895BA93AA93AA27BB27E991F99105906E
:10051A00002011F01196FBCFFD0108952F01ECE8A0
:10052A00F0E0FA93EA93F2013FD04BD084E0BADFCD
:10053A00269608952A93AD85BE85EF85F889099593
:10054A000895E889F9893497E88BF98B0895AD8580
:10055A00BE85EF85F88909950895A889B989149601
:10056A00ED91FD91EE83FF83AE81BF8108955A9389
:10057A004A933A932A931A930A9308955D814C8178
:10058A003B812A811981088108950024AF0DB01D8D
:10059A000895F195E195F0400895EE0FFF1FEE0FD3
:1005AA00FF1FEE0FFF1F08956F2F660F660B762F42
:1005BA000895ED91FC91119708950590F491E02D1D
:1005CA0008957A936A93FA93EA930895109639F004
:1005DA00A89586E69EE00197F1F71197C9F7089565
:00000001FF
