:100000000C948C000C9400000C9400000C940000E4
:100010000C9400000C9400000C9400000C94000060
:100020000C9400000C9400000C9400000C94000050
:100030000C9400000C9400000C9400000C94000040
:100040000C9400000C9400000C9400000C94000030
:100050000C9400001027E80364000A00010000105F
:100060000001100001000102040810204080003C43
:10007000464A52623C00003C464A52623C00003C08
:10008000464A52623C004E756D65726F2064652071
:10009000706573736F6173206E6F20696E74657223
:1000A000696F723A203D2025642E0D0A00416D6271
:1000B00069656E74652076617A696F200D0A00416A
:1000C0004D4249454E54452056415A494F004D41F5
:1000D0004E5445522044495354414E4349410043F4
:1000E000415041434944414445204D415800464117
:1000F000564F5220524554495241522D53450025E6
:10010000640080C00800A20166001700AA016E000A
:100110000200C20102010000F894EE27ECBBF1E0FE
:10012000FBBFEBBFE5BF8DE0A2E0BB27ED938A9557
:10013000E9F780E094E0A0E6ED930197E9F7E4E0C9
:10014000F1E085919591009761F0A591B5910590A9
:100150001590BF01F00105900D920197E1F7FB01A9
:10016000F0CFEFE5EDBFE4E0EEBFC0E6D1E00C94E8
:10017000B900442455246624772488249924AA2489
:10018000BB24EFEFEABBE0ECE7BBE0E0E8BBE4BB9D
:10019000E5BBEFEFE1BBE0E0E3BFE2BFECBFEFBDEB
:1001A000EEBDEDBDECBDE7BDE6BDEBBDEABDE9BD15
:1001B000E8BDE2BDE5BDE4BDE3BDE9BFE5BFE4BF29
:1001C000EBB9E8E1EAB9E6E8E0BDE0E0E0BDEFE583
:1001D000E9B9E0E8E8B9E0E0E0BFE6B9EDB9E6BFCB
:1001E000A0E1AFD2B09B03C0F2013196EFD2A8ECF0
:1001F000B0E074D3B19B0EC0042C052841F4EDEAA5
:10020000F0E0FA93EA9380E01CD2229603C0F20158
:100210003197DCD2A8ECB0E061D3E4E0F0E0E41583
:10022000F50534F0C698C79AE0E0EBBBE2BB39C0F5
:10023000C69B02C0C69801C0C69AC798AA24BB2410
:10024000E8E7F0E0AE16BF0604F5A2EAB1E0A60DBD
:10025000B71DEC91EBBBF40128D3E655FE4FE60D3C
:10026000F71DE081E095E2BBA2E0B0E037D3F301F7
:1002700031963F01E8E0F0E0E615F70514F4662456
:100280007724F50131965F01DBCFF40131964F0100
:10029000E2E0F0E0E815F90524F4882499246624C6
:1002A0007724A8ECB0E01AD39DD244F0C69B02C0DC
:1002B000C69801C0C69AAAE0B0E010D3042C052865
:1002C00021F495D2EFEBF0E097D2E2E0F0E0E41514
:1002D000F50521F48CD2EEECF0E08ED2E5E0F0E012
:1002E000E415F50521F483D2EFEDF0E085D27AD262
:1002F00024F07DD2EEEEF0E07FD2E7E0EA93A1E0D9
:10030000DFD1E0E6F1E0FA93EA93EFEFF0E0FA9361
:10031000EA93F201D1D2DDD284E068D12896A0E63A
:10032000B1E000D25FCFFFCFAA935D9BFECFE88103
:10033000ECB90C945E03A1D28D013C81A32FF4DFB4
:10034000D80163D2A1D22596089595D29D015E81F0
:100350001296B7D23097E1F0D9011496B2D28F013C
:10036000309759F00230E0E01E0760F0F801319755
:100370008F01D9011496ED93FC93D901129645D2C1
:1003800031975083D9019DD2FF230AF03ED205C098
:10039000D901EFEFFFEFED93FC9374D22796089508
:1003A000BA93AA93269767D210E0AC85BD85E0E0AA
:1003B000F0E0ED93FC93EA89FB893196EA8BFB8BA5
:1003C0003197E4912E2FE03009F409C1E12FE0309C
:1003D00031F4253211F411E001C01DD2FFC0E1302B
:1003E000A1F4253211F417D2F8C012E040E000E089
:1003F0002D3211F401E0F2C02B3211F44BE2EEC0C9
:10040000203211F440E2EAC002C0E23039F450E098
:1004100013E0203311F40068E1C003C0E33009F0B9
:10042000DDC0203310F02A3308F007C0AAE05A9F3D
:10043000502DE22FE0535E0FD1C0E22FE33639F4A6
:10044000F1D1E889F989A481AA93F2D1C6C0E33732
:1004500029F4E8D1F3D1A1D11E2F07C0E03749F428
:10046000E1D1ECD1A6D11E2F086002600F7730E0F9
:1004700038C0E43611F0E93611F4046002C0E53703
:1004800031F4E4E5F0E0EE83FF8315E00CC0E835DD
:1004900011F4086003C0E83709F09FC0EEE5F0E012
:1004A000EE83FF8314E002FF15C0BCD1A889B9898F
:1004B0001496ED91FD91EA87FB87AB85AA2322F480
:1004C000F0D1EA87FB874DE2403011F01F5F01C099
:1004D0000B7F07C0A7D1A889B9891496F2D1EA8702
:1004E000FB8700FD10C0151770F407FF08C002FF5E
:1004F00004C00B7F242F115001C020E301C020E273
:100500008AD15150F0CF312F01FF16C0303099F011
:1005100003FF06C0EE81FF812591EE83FF8305C0B6
:10052000AE81BF812D91AE83BF8375D1503009F06C
:1005300051503150EBCF48C020E3EE81FF81C5D14F
:10054000E887F987EE81FF813296EE83FF83E885A5
:10055000F985AA85BB85AE17BF0750F02F5FA88528
:10056000B985EA85FB85EA1BFB0BEA87FB87EFCFA2
:100570002A3328F003FF02C0295F01C0295D04FD72
:1005800019C0213320F4A885B985119709F409C051
:10059000531710F000FF01C011C020E207FF0AC08E
:1005A00020E3006102FF06C00B7F4A9341D1503027
:1005B00009F0515030D1503009F051503150A885D8
:1005C000B985129708F0B8CF00FF07C0503029F066
:1005D0005150E0E2EA932CD1F9CF10E0ECCEAC859B
:1005E000BD85ED91FD914ED164960895FF92F82E50
:1005F000269741D1FE014DD146855785042E052A07
:1006000019F4EFEFFFEF19C0DE01189646D18D0106
:1006100048875987E0E0EA87EB87DE011C9618D10E
:10062000E5EAF1E0FA93EA93DE011C96B9DE9F0158
:10063000A885B985E0E0EC93F90124D12C96FF90D0
:100640000895FF92F82E26971A930A93DE011496C6
:1006500024D18D01E0E0EC83ED83EE83EF83DE01B6
:100660001896F6D0EBE9F1E0FA93EA93DE011896DA
:1006700097DE198108812896FF9008951A931A2F02
:10068000E5B3EF70AE2FE12FE07FEA2BE5BB89E108
:100690008A95F1F7AA9A89E18A95F1F7AA9889E1F2
:1006A0008A95F1F778C0AA93A881E8DFE881E295FE
:1006B000E883A881E3DF86EF8A95F1F72196089514
:1006C0001A930A931A2F0A81E12FF0E0EE53FE4F9E
:1006D000E081E00FAE2FE7DFD02EC12E1981088117
:1006E00023960895A2E0BCD0ACE0DDDFA1E0B8D055
:1006F000E0E0CE2EDE2E08951A931A2F1A3021F044
:10070000E091C601DE1640F0E0E0EA93C394AC2D20
:10071000D7DF1A3009F43FC0D394A89AA12FC3DFC2
:10072000A89839C0AAD09D01D9012F5F3F4FEC9105
:100730001E2FE03019F0A12FDFDFF6CFA5D02496D1
:1007400008951A931A2FE4B3E06FE4BBA29AA09A1B
:10075000A19AAA98A898A9981093C601E12FE058E9
:10076000E093C401E12FE054E093C501A4E1B0E0BF
:10077000B5D07AD079D078D0A0E280DF81E791E05F
:100780000197F1F7A8E28FDFA4E08DDFA5E88BDF0A
:10079000A6E089DFA7DF19910895BA93AA93A991DA
:1007A000B991EE27FF276D91662311F03196FBCFAB
:1007B0000895BA93AA93AA27BB27E991F9910590C6
:1007C000002011F01196FBCFFD0108952F01E6E8FE
:1007D000F0E0FA93EA93F2016FD07BD084E031DF4E
:1007E00026960895E6E0F0E04E165F060895E1E8EB
:1007F000F1E0FA93EA930895FA93EA9380E0F6DE43
:10080000249670DFA1E8B1E08DCFED91FD91319696
:10081000FE93EE9308952A93AD85BE85EF85F88902
:1008200009950895E889F9893497E88BF98B08953B
:10083000AD85BE85EF85F88909950895A889B989A0
:100840001496ED91FD91EE83FF83AE81BF810895F3
:1008500024D0ED91FD91FA93EA931A930A930895A7
:1008600022DFA3E0B0E03AC0A0E308DF81E791E037
:100870000197F1F708955A934A933A932A931A935A
:100880000A9308955D814C813B812A8119810881F9
:1008900008950024EF0DF01D08950024AF0DB01D44
:1008A0000895F195E195F0400895EE0FFF1FEE0FCA
:1008B000FF1FEE0FFF1F08956F2F660F660B762F39
:1008C0000895ED91FC91119708950590F491E02D14
:1008D00008957A936A93FA93EA930895109639F0FB
:1008E000A89586E69EE00197F1F71197C9F708955C
:00000001FF
