:060000000C9476000C9444
:1000060000000C9400000C9400000C9400000C946A
:1000160000000C9400000C9400000C9400000C945A
:1000260000000C9400000C9400000C9400000C944A
:1000360000000C9400000C9400000C9400000C943A
:1000460000000C9400000C9400000C940000102793
:10005600E80364000A00010000100001100001001E
:100066004E756D65726F20646520706573736F6180
:1000760073206E6F20696E746572696F723A203DE7
:100086002025642E0D0A00416D6269656E74652037
:1000960076617A696F200D0A00414D4249454E54FA
:1000A600452056415A494F004D414E544552204431
:1000B600495354414E434941004341504143494409
:1000C600414445204D4158004641564F5220524525
:1000D60054495241522D53450025640080C0020008
:1000E600A201E2000000F894EE27ECBBF1E0FBBFB2
:1000F600EBBFE5BF8DE0A2E0BB27ED938A95E9F75C
:1001060080E094E0A0E6ED930197E9F7E4EEF0E0F5
:1001160085919591009761F0A591B59105901590FF
:10012600BF01F00105900D920197E1F7FB01F0CFB9
:10013600EFE5EDBFE4E0EEBFC0E6D1E00C94A3002E
:1001460044245524E0E0EABBEBBBE7BBE8BBE4BBD9
:10015600E5BBE1BBE2BBE3BFE2BFECBFEFBDEEBD7B
:10016600EDBDECBDE7BDE6BDEBBDEABDE9BDE8BD55
:10017600E2BDE5BDE4BDE3BDE9BFE5BFE4BFEBB964
:10018600E8E1EAB9E6E8E0BDE0E0E0BDEFE5E9B9BF
:10019600E0E8E8B9E0E0E0BFE6B9EDB9E6BFA0E126
:1001A600B3D0B09B03C0F20131969CD2A0E9B1E076
:1001B60015D3B19B0EC0042C052841F4EDE8F0E000
:1001C600FA93EA9380E058D2229603C0F20131975F
:1001D60089D2A0E9B1E002D3042C052821F48ED2FD
:1001E600EFE9F0E090D2E4E0F0E0E415F50521F463
:1001F60085D2EEEAF0E087D2E8E0F0E0E415F50516
:1002060021F47CD2EFEBF0E07ED2E9E0F0E04E168E
:100216005F0624F073D2EEECF0E075D2E7E0EA93E5
:10022600A1E034D0E0E6F1E0FA93EA93EFEDF0E0F6
:10023600FA93EA93F201C0D2CCD284E0F2D12896A6
:10024600A0E6B1E052D0ADCFFFCF1A931A2FE5B397
:10025600EF70AE2FE12FE07FEA2BE5BB89E18A95AF
:10026600F1F7AA9A89E18A95F1F7AA9889E18A9520
:10027600F1F773C0AA93A881E8DFE881E295E883E5
:10028600A881E3DF86EF8A95F1F76EC01A930A9389
:100296001A2F0A81E12FF0E0EE55FE4FE081E00FC4
:1002A600AE2FE8DF702E612E1981088123960895FE
:1002B600A2E032D2ACE0DEDFA1E02ED2E0E06E2E8C
:1002C6007E2E08951A931A2F1A3011F0791438F0E9
:1002D600E0E0EA936394A62DD9DF1A30F1F1739426
:1002E600A89AA12FC7DFA89838C04ED29D01D90180
:1002F6002F5F3F4FEC911E2FE03019F0A12FE2DF68
:10030600F6CF49D2249608951A931A2FE4B3E06FD4
:10031600E4BBA29AA09AA19AAA98A898A998912E05
:10032600E12FE058E093A401E12FE054E093A5010A
:10033600A4E1B0E053D2F4D1F3D1F2D1A0E285DF4B
:1003460081E791E00197F1F7A8E294DFA4E092DF5C
:10035600A5E890DFA6E08EDFABDF19910895AA939A
:100366005D9BFECFE881ECB9219608950DD28D01F3
:100376003C81A32FF4DFD801DAD10DD2259608955A
:1003860001D29D015E8112961CD23097E1F0D9010F
:10039600149617D28F01309759F00230E0E01E070D
:1003A60060F0F80131978F01D9011496ED93FC9313
:1003B600D9011296BCD131975083D90102D2FF23BD
:1003C6000AF0B5D105C0D901EFEFFFEFED93FC932D
:1003D600E0D127960895BA93AA932697D3D110E031
:1003E600AC85BD85E0E0F0E0ED93FC93EA89FB89FE
:1003F6003196EA8BFB8B3197E4912E2FE03009F48E
:1004060009C1E12FE03031F4253211F411E001C0C9
:1004160094D1FFC0E130A1F4253211F48ED1F8C099
:1004260012E040E000E02D3211F401E0F2C02B3280
:1004360011F44BE2EEC0203211F440E2EAC002C0F1
:10044600E23039F450E013E0203311F40068E1C0E3
:1004560003C0E33009F0DDC0203310F02A3308F082
:1004660007C0AAE05A9F502DE22FE0535E0FD1C07D
:10047600E22FE33639F468D1E889F989A481AA9391
:1004860069D1C6C0E33729F45FD16AD112D11E2FD4
:1004960007C0E03749F458D163D117D11E2F086041
:1004A60002600F7730E038C0E43611F0E93611F417
:1004B600046002C0E53731F4E4E5F0E0EE83FF8343
:1004C60015E00CC0E83511F4086003C0E83709F000
:1004D6009FC0EEE5F0E0EE83FF8314E002FF15C057
:1004E60033D1A889B9891496ED91FD91EA87FB87E6
:1004F600AB85AA2322F45CD1EA87FB874DE2403024
:1005060011F01F5F01C00B7F07C01ED1A889B989F2
:10051600149657D1EA87FB8700FD10C0151770F4B3
:1005260007FF08C002FF04C00B7F242F115001C033
:1005360020E301C020E201D15150F0CF312F01FF5D
:1005460016C0303099F003FF06C0EE81FF81259179
:10055600EE83FF8305C0AE81BF812D91AE83BF833D
:10056600ECD0503009F051503150EBCF48C020E369
:10057600EE81FF812AD1E887F987EE81FF813296E5
:10058600EE83FF83E885F985AA85BB85AE17BF078D
:1005960050F02F5FA885B985EA85FB85EA1BFB0B22
:1005A600EA87FB87EFCF2A3328F003FF02C0295FD3
:1005B60001C0295D04FD19C0213320F4A885B98541
:1005C600119709F409C0531710F000FF01C011C0BC
:1005D60020E207FF0AC020E3006102FF06C00B7F8E
:1005E6004A93B8D0503009F05150A7D0503009F096
:1005F60051503150A885B985129708F0B8CF00FF41
:1006060007C0503029F05150E0E2EA93A3D0F9CF69
:1006160010E0ECCEAC85BD85ED91FD91BAD0649627
:100626000895FF92F82E2697ADD0FE01B9D04685E3
:100636005785042E052A19F4EFEFFFEF19C0DE01E6
:100646001896B2D08D0148875987E0E0EA87EB8794
:10065600DE011C968FD0E3ECF1E0FA93EA93DE011B
:100666001C96B9DE9F01A885B985E0E0EC93F901F7
:1006760090D02C96FF900895FF92F82E26971A9305
:100686000A93DE01149690D08D01E0E0EC83ED83B1
:10069600EE83EF83DE0118966DD0E9EBF1E0FA9375
:1006A600EA93DE01189697DE198108812896FF9055
:1006B6000895BA93AA93A991B991EE27FF276D9150
:1006C600662311F03196FBCF0895BA93AA93AA2711
:1006D600BB27E991F9910590002011F01196FBCF07
:1006E600FD0108952F01E6E6F0E0FA93EA93F201A0
:1006F60063D06FD084E0C0DF26960895E1E8F1E08C
:10070600FA93EA930895FA93EA9380E08ADF2496AF
:10071600CFDDA1E8B1E0E9CDADDDA3E0B0E05EC09C
:10072600A0E393DD81E791E00197F1F70895ED915C
:10073600FD913196FE93EE9308952A93AD85BE857D
:10074600EF85F88909950895E889F9893497E88B42
:10075600F98B0895AD85BE85EF85F88909950895CD
:10076600A889B9891496ED91FD91EE83FF83AE8138
:10077600BF81089519D0ED91FD91FA93EA931A93EA
:100786000A9308955A934A933A932A931A930A938B
:1007960008955D814C813B812A81198108810895E4
:1007A6000024EF0DF01D08950024AF0DB01D08952F
:1007B600F195E195F04008956F2F660F660B762F41
:1007C6000895ED91FC91119708950590F491E02D0F
:1007D60008957A936A93FA93EA930895109639F0F6
:1007E600A89586E69EE00197F1F71197C9F7089557
:00000001FF
